S00F000044325F4C6162322E73726563FF
S11300000C9434000C9451000C9451000C94510045
S11300100C9451000C9451000C9451000C94510018
S11300200C9451000C9451000C9451000C94510008
S11300300C9451000C9451000C9451000C945100F8
S11300400C9451000C9451000C9436020C94510001
S11300500C9451000C94F4010C9451000C94510034
S11300600C9451000C94510011241FBECFEFD8E022
S1130070DEBFCDBF11E0A0E0B1E0EAE2F9E002C0EA
S113008005900D92A231B107D9F721E0A2E1B1E0C8
S113009001C01D92A731B207E1F70E947C010C94C4
S11300A093040C9400009BB19B7F9BB99BB140E1EE
S11300B0849F900111249F70292B2BB995B1907FB7
S11300C082958F70892B85B98BB188608BB985E156
S11300D08A95F1F700008BB1877F8BB98FE891E0A7
S11300E00197F1F700C0000008958AB18C6F8AB9B6
S11300F084B18F6084B92FEF89EF90E02150804064
S11301009040E1F700C0000088E30E9453008CE0B7
S11301100E94530086E00E94530081E00E94530035
S11301208FE39FE10197F1F700C0000008959BB1B0
S113013094609BB99BB140E1849F900111249F700E
S1130140292B2BB995B1907F82958F70892B85B916
S11301508BB188608BB985E18A95F1F700008BB18A
S1130160877F8BB98FE891E00197F1F700C0000019
S11301700895CF93DF93EC0103C021960E9497006A
S113018088818111FACFDF91CF91089580EC0E948C
S113019053000895ECE7F0E010828081806480834E
S11301A0808180628083EAE7F0E010828081806849
S11301B080838081886080838081876080831092BF
S11301C07B0080818064808308958AB18E7F8AB9A0
S11301D08AB182608AB9E0ECF0E0108280818260AA
S11301E08083E1ECF0E01082808180698083E2EC1E
S11301F0F0E0108280818660808382E290E09093B8
S1130200C5008093C4000895F89417B80E94E500CF
S11302100E94CA000E947500789408958F929F925C
S1130220AF92BF92CF92DF92EF92FF92CF93DF9380
S11302304B015C01EA010E9428036B017C01072E3B
S1130240000C880B990B0E9460039B01AC01C50153
S1130250B4010E94490220E030E048EC52E40E94DC
S1130260EC030E94280320E32C0D28832EE229832B
S1130270CB016AE070E00E945904605D6A83805D8E
S11302808B831C82DF91CF91FF90EF90DF90CF9012
S1130290BF90AF909F908F900895CF93DF93EB0121
S11302A0BC01990F880B990B0E94600320E030E099
S11302B04FE753E40E94B60220E030E040EA50E405
S11302C00E94EC03AE010E940E01DF91CF910895CC
S11302D0FB018A30910534F490E39083805D81833F
S11302E0128208956AE070E00E945904605D6083A0
S11302F0805D818312820895CF93DF93CDB7DEB7FB
S11303006F970FB6F894DEBF0FBECDBF0E940401F5
S113031081E091E00E94B900809115018130C9F417
S113032010921501809116018B3241F480910001E5
S1130330843178F48F5F809300010BC080911601A3
S11303408D3239F480910001882319F08150809313
S113035000018091140145E050E0BE016B5E7F4FC7
S113036090E00E944D018091130145E050E0BE01F0
S1130370605F7F4F90E00E944D0180910001BE01BB
S1130380635E7F4F90E00E94680186E590E29B8F58
S11303908A8F1C8EBE016B5E7F4FCE0101960E9438
S11303A08C04BE01665E7F4FCE0101960E948104DB
S11303B0BE01605F7F4FCE0101960E948104BE01A1
S11303C0665E7F4FCE0101960E948104BE01635E8A
S11303D07F4FCE0101960E9481040E94C600CE0187
S11303E001960E94B90098CF1F920F920FB60F92F8
S11303F011248F93EF93FF93EAE7F0E080818F77E6
S113040080838091120181110FC0ECE7F0E08081BC
S1130410816080838091790080931401809112011E
S11304208F5F809312010FC080911201813059F4C3
S1130430ECE7F0E080818E7F808380917900809367
S1130440130110921201EAE7F0E080818068808352
S1130450808180648083808180618083FF91EF91BB
S11304608F910F900FBE0F901F9018951F920F92AF
S11304700FB60F9211248F9381E080931501809120
S1130480C600809316018F910F900FBE0F901F909E
S113049018955058BB27AA270E9461020C94B203F6
S11304A00E94A40338F00E94AB0320F039F49F3F6C
S11304B019F426F40C94A1030EF4E095E7FB0C94D4
S11304C09B03E92F0E94C30358F3BA17620773070B
S11304D08407950720F079F4A6F50C94E5030EF44F
S11304E0E0950B2EBA2FA02D0B01B90190010C0140
S11304F0CA01A0011124FF27591B99F0593F50F458
S1130500503E68F11A16F040A22F232F342F4427AF
S1130510585FF3CF469537952795A795F0405395A7
S1130520C9F77EF41F16BA0B620B730B840BBAF077
S11305309150A1F0FF0FBB1F661F771F881FC2F7E2
S11305400EC0BA0F621F731F841F48F487957795F6
S11305506795B795F7959E3F08F0B0CF9395880FB0
S113056008F09927EE0F9795879508950E94CA027F
S11305700C94B2030E94AB0358F00E94A40340F011
S113058029F45F3F29F00C949B0351110C94E6036A
S11305900C94A1030E94C30368F39923B1F3552378
S11305A091F3951B550BBB27AA2762177307840782
S11305B038F09F5F5F4F220F331F441FAA1FA9F318
S11305C035D00E2E3AF0E0E832D091505040E69506
S11305D0001CCAF72BD0FE2F29D0660F771F881F67
S11305E0BB1F261737074807AB07B0E809F0BB0B5A
S11305F0802DBF01FF2793585F4F3AF09E3F51056E
S113060078F00C949B030C94E6035F3FE4F3983E6C
S1130610D4F3869577956795B795F7959F5FC9F756
S1130620880F911D9695879597F90895E1E0660FD7
S1130630771F881FBB1F621773078407BA0720F050
S1130640621B730B840BBA0BEE1F88F7E0950895B9
S11306500E942F036894B1110C94E60308950E943C
S1130660CB0388F09F5798F0B92F9927B751B0F072
S1130670E1F0660F771F881F991F1AF0BA95C9F722
S113068014C0B13091F00E94E503B1E008950C94D8
S1130690E503672F782F8827B85F39F0B93FCCF38B
S11306A0869577956795B395D9F73EF4909580959F
S11306B0709561957F4F8F4F9F4F0895E89409C0BF
S11306C097FB3EF490958095709561957F4F8F4F81
S11306D09F4F9923A9F0F92F96E9BB279395F69597
S11306E0879577956795B795F111F8CFFAF4BB0F15
S11306F011F460FF1BC06F5F7F4F8F4F9F4F16C079
S1130700882311F096E911C0772321F09EE8872F02
S1130710762F05C0662371F096E8862F70E060E0BE
S11307202AF09A95660F771F881FDAF7880F969537
S1130730879597F9089597F99F6780E870E060E0DE
S113074008959FEF80EC089500240A941616170666
S113075018060906089500240A94121613061406AE
S113076005060895092E0394000C11F4882352F011
S1130770BB0F40F4BF2B11F460FF04C06F5F7F4FC9
S11307808F4F9F4F089557FD9058440F551F59F0B0
S11307905F3F71F04795880F97FB991F61F09F3F6A
S11307A079F087950895121613061406551FF2CF93
S11307B04695F1DF08C0161617061806991FF1CFE3
S11307C086957105610508940895E894BB2766270A
S11307D07727CB0197F908950E94FF030C94B20385
S11307E00E94A40338F00E94AB0320F0952311F07B
S11307F00C949B030C94A10311240C94E6030E9413
S1130800C30370F3959FC1F3950F50E0551F629F8A
S1130810F001729FBB27F00DB11D639FAA27F00D55
S1130820B11DAA1F649F6627B00DA11D661F829F7C
S11308302227B00DA11D621F739FB00DA11D621F61
S1130840839FA00D611D221F749F3327A00D611D7E
S1130850231F849F600D211D822F762F6A2F112460
S11308609F5750409AF0F1F088234AF0EE0FFF1F93
S1130870BB1F661F771F881F91505040A9F79E3FEA
S1130880510580F00C949B030C94E6035F3FE4F362
S1130890983ED4F3869577956795B795F795E79540
S11308A09F5FC1F7FE2B880F911D9695879597F949
S11308B0089597FB072E16F4009407D077FD09D00E
S11308C00E946D0407FC05D03EF4909581959F4FDE
S11308D00895709561957F4F0895AA1BBB1B51E144
S11308E007C0AA1FBB1FA617B70710F0A61BB70B9C
S11308F0881F991F5A95A9F780959095BC01CD0141
S11309000895FB01DC010D900020E9F71197019097
S11309100D920020E1F70895FB01DC0101900D9296
S10D09200020E1F70895F894FFCFDA
S113092A012053313A20202053323A202053333ABB
S105093A0000B7
S9030000FC
